{
  "_format": "hh-sol-artifact-1",
  "contractName": "HapiCore",
  "sourceName": "contracts/HapiCore.sol",
  "abi": [
    {
      "inputs": [],
      "name": "AccessControlBadConfirmation",
      "type": "error"
    },
    {
      "inputs": [
        {
          "internalType": "address",
          "name": "account",
          "type": "address"
        },
        {
          "internalType": "bytes32",
          "name": "neededRole",
          "type": "bytes32"
        }
      ],
      "name": "AccessControlUnauthorizedAccount",
      "type": "error"
    },
    {
      "inputs": [
        {
          "internalType": "address",
          "name": "addr",
          "type": "address"
        },
        {
          "internalType": "uint128",
          "name": "reporter_id",
          "type": "uint128"
        }
      ],
      "name": "AddressAlreadyConfirmed",
      "type": "error"
    },
    {
      "inputs": [
        {
          "internalType": "address",
          "name": "addr",
          "type": "address"
        }
      ],
      "name": "AddressNotFound",
      "type": "error"
    },
    {
      "inputs": [
        {
          "internalType": "address",
          "name": "addr",
          "type": "address"
        },
        {
          "internalType": "uint256",
          "name": "asset_id",
          "type": "uint256"
        },
        {
          "internalType": "uint128",
          "name": "reporter_id",
          "type": "uint128"
        }
      ],
      "name": "AssetAlreadyConfirmed",
      "type": "error"
    },
    {
      "inputs": [
        {
          "internalType": "address",
          "name": "addr",
          "type": "address"
        },
        {
          "internalType": "uint256",
          "name": "asset_id",
          "type": "uint256"
        }
      ],
      "name": "AssetNotFound",
      "type": "error"
    },
    {
      "inputs": [
        {
          "internalType": "address",
          "name": "addr",
          "type": "address"
        },
        {
          "internalType": "uint128",
          "name": "reporter_id",
          "type": "uint128"
        }
      ],
      "name": "CannotConfirmOwnAddress",
      "type": "error"
    },
    {
      "inputs": [
        {
          "internalType": "address",
          "name": "addr",
          "type": "address"
        },
        {
          "internalType": "uint256",
          "name": "asset_id",
          "type": "uint256"
        },
        {
          "internalType": "uint128",
          "name": "reporter_id",
          "type": "uint128"
        }
      ],
      "name": "CannotConfirmOwnAsset",
      "type": "error"
    },
    {
      "inputs": [
        {
          "internalType": "uint128",
          "name": "id",
          "type": "uint128"
        }
      ],
      "name": "CaseNotFound",
      "type": "error"
    },
    {
      "inputs": [],
      "name": "ContractNotConfigured",
      "type": "error"
    },
    {
      "inputs": [
        {
          "internalType": "address",
          "name": "addr",
          "type": "address"
        }
      ],
      "name": "DuplicateAddress",
      "type": "error"
    },
    {
      "inputs": [
        {
          "internalType": "address",
          "name": "addr",
          "type": "address"
        },
        {
          "internalType": "uint256",
          "name": "asset_id",
          "type": "uint256"
        }
      ],
      "name": "DuplicateAsset",
      "type": "error"
    },
    {
      "inputs": [
        {
          "internalType": "uint128",
          "name": "id",
          "type": "uint128"
        }
      ],
      "name": "DuplicateId",
      "type": "error"
    },
    {
      "inputs": [],
      "name": "InsufficientTokensOrAllowance",
      "type": "error"
    },
    {
      "inputs": [
        {
          "internalType": "uint128",
          "name": "id",
          "type": "uint128"
        },
        {
          "internalType": "enum HapiCore.CaseStatus",
          "name": "status",
          "type": "uint8"
        }
      ],
      "name": "InvalidCaseStatus",
      "type": "error"
    },
    {
      "inputs": [],
      "name": "InvalidInitialization",
      "type": "error"
    },
    {
      "inputs": [
        {
          "internalType": "address",
          "name": "caller",
          "type": "address"
        }
      ],
      "name": "InvalidReporter",
      "type": "error"
    },
    {
      "inputs": [
        {
          "internalType": "uint128",
          "name": "id",
          "type": "uint128"
        },
        {
          "internalType": "enum HapiCore.ReporterStatus",
          "name": "status",
          "type": "uint8"
        }
      ],
      "name": "InvalidReporterStatus",
      "type": "error"
    },
    {
      "inputs": [],
      "name": "InvalidRoleStakeConfiguration",
      "type": "error"
    },
    {
      "inputs": [],
      "name": "MustBeCaseReporterOrAuthority",
      "type": "error"
    },
    {
      "inputs": [],
      "name": "NotInitializing",
      "type": "error"
    },
    {
      "inputs": [
        {
          "internalType": "address",
          "name": "owner",
          "type": "address"
        }
      ],
      "name": "OwnableInvalidOwner",
      "type": "error"
    },
    {
      "inputs": [
        {
          "internalType": "address",
          "name": "account",
          "type": "address"
        }
      ],
      "name": "OwnableUnauthorizedAccount",
      "type": "error"
    },
    {
      "inputs": [
        {
          "internalType": "uint128",
          "name": "id",
          "type": "uint128"
        },
        {
          "internalType": "uint256",
          "name": "unlock_timestamp",
          "type": "uint256"
        }
      ],
      "name": "ReporterLocked",
      "type": "error"
    },
    {
      "inputs": [
        {
          "internalType": "uint128",
          "name": "id",
          "type": "uint128"
        }
      ],
      "name": "ReporterNotFound",
      "type": "error"
    },
    {
      "inputs": [
        {
          "internalType": "uint8",
          "name": "risk",
          "type": "uint8"
        }
      ],
      "name": "RiskOutOfRange",
      "type": "error"
    },
    {
      "anonymous": false,
      "inputs": [
        {
          "indexed": true,
          "internalType": "address",
          "name": "addr",
          "type": "address"
        }
      ],
      "name": "AddressConfirmed",
      "type": "event"
    },
    {
      "anonymous": false,
      "inputs": [
        {
          "indexed": true,
          "internalType": "address",
          "name": "addr",
          "type": "address"
        },
        {
          "indexed": false,
          "internalType": "uint8",
          "name": "risk",
          "type": "uint8"
        },
        {
          "indexed": false,
          "internalType": "enum HapiCore.Category",
          "name": "category",
          "type": "uint8"
        }
      ],
      "name": "AddressCreated",
      "type": "event"
    },
    {
      "anonymous": false,
      "inputs": [
        {
          "indexed": true,
          "internalType": "address",
          "name": "addr",
          "type": "address"
        },
        {
          "indexed": false,
          "internalType": "uint8",
          "name": "risk",
          "type": "uint8"
        },
        {
          "indexed": false,
          "internalType": "enum HapiCore.Category",
          "name": "category",
          "type": "uint8"
        }
      ],
      "name": "AddressUpdated",
      "type": "event"
    },
    {
      "anonymous": false,
      "inputs": [
        {
          "indexed": true,
          "internalType": "address",
          "name": "addr",
          "type": "address"
        },
        {
          "indexed": false,
          "internalType": "uint256",
          "name": "asset_id",
          "type": "uint256"
        }
      ],
      "name": "AssetConfirmed",
      "type": "event"
    },
    {
      "anonymous": false,
      "inputs": [
        {
          "indexed": true,
          "internalType": "address",
          "name": "addr",
          "type": "address"
        },
        {
          "indexed": false,
          "internalType": "uint256",
          "name": "asset_id",
          "type": "uint256"
        },
        {
          "indexed": false,
          "internalType": "uint8",
          "name": "risk",
          "type": "uint8"
        },
        {
          "indexed": false,
          "internalType": "enum HapiCore.Category",
          "name": "category",
          "type": "uint8"
        }
      ],
      "name": "AssetCreated",
      "type": "event"
    },
    {
      "anonymous": false,
      "inputs": [
        {
          "indexed": true,
          "internalType": "address",
          "name": "addr",
          "type": "address"
        },
        {
          "indexed": false,
          "internalType": "uint256",
          "name": "asset_id",
          "type": "uint256"
        },
        {
          "indexed": false,
          "internalType": "uint8",
          "name": "risk",
          "type": "uint8"
        },
        {
          "indexed": false,
          "internalType": "enum HapiCore.Category",
          "name": "category",
          "type": "uint8"
        }
      ],
      "name": "AssetUpdated",
      "type": "event"
    },
    {
      "anonymous": false,
      "inputs": [
        {
          "indexed": true,
          "internalType": "uint128",
          "name": "id",
          "type": "uint128"
        }
      ],
      "name": "CaseCreated",
      "type": "event"
    },
    {
      "anonymous": false,
      "inputs": [
        {
          "indexed": true,
          "internalType": "uint128",
          "name": "id",
          "type": "uint128"
        }
      ],
      "name": "CaseUpdated",
      "type": "event"
    },
    {
      "anonymous": false,
      "inputs": [
        {
          "indexed": false,
          "internalType": "uint64",
          "name": "version",
          "type": "uint64"
        }
      ],
      "name": "Initialized",
      "type": "event"
    },
    {
      "anonymous": false,
      "inputs": [
        {
          "indexed": true,
          "internalType": "address",
          "name": "previousOwner",
          "type": "address"
        },
        {
          "indexed": true,
          "internalType": "address",
          "name": "newOwner",
          "type": "address"
        }
      ],
      "name": "OwnershipTransferred",
      "type": "event"
    },
    {
      "anonymous": false,
      "inputs": [
        {
          "indexed": true,
          "internalType": "uint128",
          "name": "id",
          "type": "uint128"
        }
      ],
      "name": "ReporterActivated",
      "type": "event"
    },
    {
      "anonymous": false,
      "inputs": [
        {
          "indexed": true,
          "internalType": "uint128",
          "name": "id",
          "type": "uint128"
        },
        {
          "indexed": false,
          "internalType": "address",
          "name": "reporter",
          "type": "address"
        },
        {
          "indexed": false,
          "internalType": "enum HapiCore.ReporterRole",
          "name": "role",
          "type": "uint8"
        }
      ],
      "name": "ReporterCreated",
      "type": "event"
    },
    {
      "anonymous": false,
      "inputs": [
        {
          "indexed": true,
          "internalType": "uint128",
          "name": "id",
          "type": "uint128"
        }
      ],
      "name": "ReporterDeactivated",
      "type": "event"
    },
    {
      "anonymous": false,
      "inputs": [
        {
          "indexed": true,
          "internalType": "uint128",
          "name": "id",
          "type": "uint128"
        }
      ],
      "name": "ReporterStakeWithdrawn",
      "type": "event"
    },
    {
      "anonymous": false,
      "inputs": [
        {
          "indexed": true,
          "internalType": "uint128",
          "name": "id",
          "type": "uint128"
        },
        {
          "indexed": false,
          "internalType": "address",
          "name": "account",
          "type": "address"
        },
        {
          "indexed": false,
          "internalType": "enum HapiCore.ReporterRole",
          "name": "role",
          "type": "uint8"
        }
      ],
      "name": "ReporterUpdated",
      "type": "event"
    },
    {
      "anonymous": false,
      "inputs": [
        {
          "indexed": false,
          "internalType": "address",
          "name": "token",
          "type": "address"
        },
        {
          "indexed": false,
          "internalType": "uint256",
          "name": "address_confirmation_reward",
          "type": "uint256"
        },
        {
          "indexed": false,
          "internalType": "uint256",
          "name": "address_tracer_reward",
          "type": "uint256"
        },
        {
          "indexed": false,
          "internalType": "uint256",
          "name": "asset_confirmation_reward",
          "type": "uint256"
        },
        {
          "indexed": false,
          "internalType": "uint256",
          "name": "asset_tracer_reward",
          "type": "uint256"
        }
      ],
      "name": "RewardConfigurationChanged",
      "type": "event"
    },
    {
      "anonymous": false,
      "inputs": [
        {
          "indexed": true,
          "internalType": "bytes32",
          "name": "role",
          "type": "bytes32"
        },
        {
          "indexed": true,
          "internalType": "bytes32",
          "name": "previousAdminRole",
          "type": "bytes32"
        },
        {
          "indexed": true,
          "internalType": "bytes32",
          "name": "newAdminRole",
          "type": "bytes32"
        }
      ],
      "name": "RoleAdminChanged",
      "type": "event"
    },
    {
      "anonymous": false,
      "inputs": [
        {
          "indexed": true,
          "internalType": "bytes32",
          "name": "role",
          "type": "bytes32"
        },
        {
          "indexed": true,
          "internalType": "address",
          "name": "account",
          "type": "address"
        },
        {
          "indexed": true,
          "internalType": "address",
          "name": "sender",
          "type": "address"
        }
      ],
      "name": "RoleGranted",
      "type": "event"
    },
    {
      "anonymous": false,
      "inputs": [
        {
          "indexed": true,
          "internalType": "bytes32",
          "name": "role",
          "type": "bytes32"
        },
        {
          "indexed": true,
          "internalType": "address",
          "name": "account",
          "type": "address"
        },
        {
          "indexed": true,
          "internalType": "address",
          "name": "sender",
          "type": "address"
        }
      ],
      "name": "RoleRevoked",
      "type": "event"
    },
    {
      "anonymous": false,
      "inputs": [
        {
          "indexed": false,
          "internalType": "address",
          "name": "token",
          "type": "address"
        },
        {
          "indexed": false,
          "internalType": "uint256",
          "name": "unlock_duration",
          "type": "uint256"
        },
        {
          "indexed": false,
          "internalType": "uint256",
          "name": "validator_stake",
          "type": "uint256"
        },
        {
          "indexed": false,
          "internalType": "uint256",
          "name": "tracer_stake",
          "type": "uint256"
        },
        {
          "indexed": false,
          "internalType": "uint256",
          "name": "publisher_stake",
          "type": "uint256"
        },
        {
          "indexed": false,
          "internalType": "uint256",
          "name": "authority_stake",
          "type": "uint256"
        }
      ],
      "name": "StakeConfigurationChanged",
      "type": "event"
    },
    {
      "inputs": [],
      "name": "AUTHORITY_ROLE",
      "outputs": [
        {
          "internalType": "bytes32",
          "name": "",
          "type": "bytes32"
        }
      ],
      "stateMutability": "view",
      "type": "function"
    },
    {
      "inputs": [],
      "name": "DEFAULT_ADMIN_ROLE",
      "outputs": [
        {
          "internalType": "bytes32",
          "name": "",
          "type": "bytes32"
        }
      ],
      "stateMutability": "view",
      "type": "function"
    },
    {
      "inputs": [],
      "name": "activateReporter",
      "outputs": [],
      "stateMutability": "nonpayable",
      "type": "function"
    },
    {
      "inputs": [],
      "name": "authority",
      "outputs": [
        {
          "internalType": "address",
          "name": "",
          "type": "address"
        }
      ],
      "stateMutability": "view",
      "type": "function"
    },
    {
      "inputs": [
        {
          "internalType": "address",
          "name": "addr",
          "type": "address"
        }
      ],
      "name": "confirmAddress",
      "outputs": [],
      "stateMutability": "nonpayable",
      "type": "function"
    },
    {
      "inputs": [
        {
          "internalType": "address",
          "name": "addr",
          "type": "address"
        },
        {
          "internalType": "uint256",
          "name": "asset_id",
          "type": "uint256"
        }
      ],
      "name": "confirmAsset",
      "outputs": [],
      "stateMutability": "nonpayable",
      "type": "function"
    },
    {
      "inputs": [
        {
          "internalType": "address",
          "name": "addr",
          "type": "address"
        },
        {
          "internalType": "uint128",
          "name": "case_id",
          "type": "uint128"
        },
        {
          "internalType": "uint8",
          "name": "risk",
          "type": "uint8"
        },
        {
          "internalType": "enum HapiCore.Category",
          "name": "category",
          "type": "uint8"
        }
      ],
      "name": "createAddress",
      "outputs": [],
      "stateMutability": "nonpayable",
      "type": "function"
    },
    {
      "inputs": [
        {
          "internalType": "address",
          "name": "addr",
          "type": "address"
        },
        {
          "internalType": "uint256",
          "name": "asset_id",
          "type": "uint256"
        },
        {
          "internalType": "uint128",
          "name": "case_id",
          "type": "uint128"
        },
        {
          "internalType": "uint8",
          "name": "risk",
          "type": "uint8"
        },
        {
          "internalType": "enum HapiCore.Category",
          "name": "category",
          "type": "uint8"
        }
      ],
      "name": "createAsset",
      "outputs": [],
      "stateMutability": "nonpayable",
      "type": "function"
    },
    {
      "inputs": [
        {
          "internalType": "uint128",
          "name": "id",
          "type": "uint128"
        },
        {
          "internalType": "string",
          "name": "name",
          "type": "string"
        },
        {
          "internalType": "string",
          "name": "url",
          "type": "string"
        }
      ],
      "name": "createCase",
      "outputs": [],
      "stateMutability": "nonpayable",
      "type": "function"
    },
    {
      "inputs": [
        {
          "internalType": "uint128",
          "name": "id",
          "type": "uint128"
        },
        {
          "internalType": "address",
          "name": "account",
          "type": "address"
        },
        {
          "internalType": "enum HapiCore.ReporterRole",
          "name": "role",
          "type": "uint8"
        },
        {
          "internalType": "string",
          "name": "name",
          "type": "string"
        },
        {
          "internalType": "string",
          "name": "url",
          "type": "string"
        }
      ],
      "name": "createReporter",
      "outputs": [],
      "stateMutability": "nonpayable",
      "type": "function"
    },
    {
      "inputs": [],
      "name": "deactivateReporter",
      "outputs": [],
      "stateMutability": "nonpayable",
      "type": "function"
    },
    {
      "inputs": [
        {
          "internalType": "address",
          "name": "addr",
          "type": "address"
        }
      ],
      "name": "getAddress",
      "outputs": [
        {
          "components": [
            {
              "internalType": "address",
              "name": "addr",
              "type": "address"
            },
            {
              "internalType": "uint128",
              "name": "case_id",
              "type": "uint128"
            },
            {
              "internalType": "uint128",
              "name": "reporter_id",
              "type": "uint128"
            },
            {
              "internalType": "uint64",
              "name": "confirmations",
              "type": "uint64"
            },
            {
              "internalType": "uint8",
              "name": "risk",
              "type": "uint8"
            },
            {
              "internalType": "enum HapiCore.Category",
              "name": "category",
              "type": "uint8"
            }
          ],
          "internalType": "struct HapiCore.Address",
          "name": "",
          "type": "tuple"
        }
      ],
      "stateMutability": "view",
      "type": "function"
    },
    {
      "inputs": [],
      "name": "getAddressCount",
      "outputs": [
        {
          "internalType": "uint256",
          "name": "",
          "type": "uint256"
        }
      ],
      "stateMutability": "view",
      "type": "function"
    },
    {
      "inputs": [
        {
          "internalType": "uint256",
          "name": "skip",
          "type": "uint256"
        },
        {
          "internalType": "uint256",
          "name": "take",
          "type": "uint256"
        }
      ],
      "name": "getAddresses",
      "outputs": [
        {
          "components": [
            {
              "internalType": "address",
              "name": "addr",
              "type": "address"
            },
            {
              "internalType": "uint128",
              "name": "case_id",
              "type": "uint128"
            },
            {
              "internalType": "uint128",
              "name": "reporter_id",
              "type": "uint128"
            },
            {
              "internalType": "uint64",
              "name": "confirmations",
              "type": "uint64"
            },
            {
              "internalType": "uint8",
              "name": "risk",
              "type": "uint8"
            },
            {
              "internalType": "enum HapiCore.Category",
              "name": "category",
              "type": "uint8"
            }
          ],
          "internalType": "struct HapiCore.Address[]",
          "name": "",
          "type": "tuple[]"
        }
      ],
      "stateMutability": "view",
      "type": "function"
    },
    {
      "inputs": [
        {
          "internalType": "address",
          "name": "addr",
          "type": "address"
        },
        {
          "internalType": "uint256",
          "name": "asset_id",
          "type": "uint256"
        }
      ],
      "name": "getAsset",
      "outputs": [
        {
          "components": [
            {
              "internalType": "address",
              "name": "addr",
              "type": "address"
            },
            {
              "internalType": "uint256",
              "name": "asset_id",
              "type": "uint256"
            },
            {
              "internalType": "uint128",
              "name": "case_id",
              "type": "uint128"
            },
            {
              "internalType": "uint128",
              "name": "reporter_id",
              "type": "uint128"
            },
            {
              "internalType": "uint64",
              "name": "confirmations",
              "type": "uint64"
            },
            {
              "internalType": "uint8",
              "name": "risk",
              "type": "uint8"
            },
            {
              "internalType": "enum HapiCore.Category",
              "name": "category",
              "type": "uint8"
            }
          ],
          "internalType": "struct HapiCore.Asset",
          "name": "",
          "type": "tuple"
        }
      ],
      "stateMutability": "view",
      "type": "function"
    },
    {
      "inputs": [],
      "name": "getAssetCount",
      "outputs": [
        {
          "internalType": "uint256",
          "name": "",
          "type": "uint256"
        }
      ],
      "stateMutability": "view",
      "type": "function"
    },
    {
      "inputs": [
        {
          "internalType": "uint256",
          "name": "skip",
          "type": "uint256"
        },
        {
          "internalType": "uint256",
          "name": "take",
          "type": "uint256"
        }
      ],
      "name": "getAssets",
      "outputs": [
        {
          "components": [
            {
              "internalType": "address",
              "name": "addr",
              "type": "address"
            },
            {
              "internalType": "uint256",
              "name": "asset_id",
              "type": "uint256"
            },
            {
              "internalType": "uint128",
              "name": "case_id",
              "type": "uint128"
            },
            {
              "internalType": "uint128",
              "name": "reporter_id",
              "type": "uint128"
            },
            {
              "internalType": "uint64",
              "name": "confirmations",
              "type": "uint64"
            },
            {
              "internalType": "uint8",
              "name": "risk",
              "type": "uint8"
            },
            {
              "internalType": "enum HapiCore.Category",
              "name": "category",
              "type": "uint8"
            }
          ],
          "internalType": "struct HapiCore.Asset[]",
          "name": "",
          "type": "tuple[]"
        }
      ],
      "stateMutability": "view",
      "type": "function"
    },
    {
      "inputs": [
        {
          "internalType": "uint128",
          "name": "id",
          "type": "uint128"
        }
      ],
      "name": "getCase",
      "outputs": [
        {
          "components": [
            {
              "internalType": "uint128",
              "name": "id",
              "type": "uint128"
            },
            {
              "internalType": "string",
              "name": "name",
              "type": "string"
            },
            {
              "internalType": "uint128",
              "name": "reporter_id",
              "type": "uint128"
            },
            {
              "internalType": "enum HapiCore.CaseStatus",
              "name": "status",
              "type": "uint8"
            },
            {
              "internalType": "string",
              "name": "url",
              "type": "string"
            }
          ],
          "internalType": "struct HapiCore.Case",
          "name": "",
          "type": "tuple"
        }
      ],
      "stateMutability": "view",
      "type": "function"
    },
    {
      "inputs": [],
      "name": "getCaseCount",
      "outputs": [
        {
          "internalType": "uint256",
          "name": "",
          "type": "uint256"
        }
      ],
      "stateMutability": "view",
      "type": "function"
    },
    {
      "inputs": [
        {
          "internalType": "uint256",
          "name": "skip",
          "type": "uint256"
        },
        {
          "internalType": "uint256",
          "name": "take",
          "type": "uint256"
        }
      ],
      "name": "getCases",
      "outputs": [
        {
          "components": [
            {
              "internalType": "uint128",
              "name": "id",
              "type": "uint128"
            },
            {
              "internalType": "string",
              "name": "name",
              "type": "string"
            },
            {
              "internalType": "uint128",
              "name": "reporter_id",
              "type": "uint128"
            },
            {
              "internalType": "enum HapiCore.CaseStatus",
              "name": "status",
              "type": "uint8"
            },
            {
              "internalType": "string",
              "name": "url",
              "type": "string"
            }
          ],
          "internalType": "struct HapiCore.Case[]",
          "name": "",
          "type": "tuple[]"
        }
      ],
      "stateMutability": "view",
      "type": "function"
    },
    {
      "inputs": [],
      "name": "getMyReporterId",
      "outputs": [
        {
          "internalType": "uint128",
          "name": "",
          "type": "uint128"
        }
      ],
      "stateMutability": "view",
      "type": "function"
    },
    {
      "inputs": [],
      "name": "getMyRole",
      "outputs": [
        {
          "internalType": "enum HapiCore.ReporterRole",
          "name": "",
          "type": "uint8"
        }
      ],
      "stateMutability": "view",
      "type": "function"
    },
    {
      "inputs": [
        {
          "internalType": "uint128",
          "name": "id",
          "type": "uint128"
        }
      ],
      "name": "getReporter",
      "outputs": [
        {
          "components": [
            {
              "internalType": "uint128",
              "name": "id",
              "type": "uint128"
            },
            {
              "internalType": "address",
              "name": "account",
              "type": "address"
            },
            {
              "internalType": "string",
              "name": "name",
              "type": "string"
            },
            {
              "internalType": "string",
              "name": "url",
              "type": "string"
            },
            {
              "internalType": "enum HapiCore.ReporterRole",
              "name": "role",
              "type": "uint8"
            },
            {
              "internalType": "enum HapiCore.ReporterStatus",
              "name": "status",
              "type": "uint8"
            },
            {
              "internalType": "uint256",
              "name": "stake",
              "type": "uint256"
            },
            {
              "internalType": "uint256",
              "name": "unlock_timestamp",
              "type": "uint256"
            }
          ],
          "internalType": "struct HapiCore.Reporter",
          "name": "",
          "type": "tuple"
        }
      ],
      "stateMutability": "view",
      "type": "function"
    },
    {
      "inputs": [],
      "name": "getReporterCount",
      "outputs": [
        {
          "internalType": "uint256",
          "name": "",
          "type": "uint256"
        }
      ],
      "stateMutability": "view",
      "type": "function"
    },
    {
      "inputs": [
        {
          "internalType": "uint256",
          "name": "skip",
          "type": "uint256"
        },
        {
          "internalType": "uint256",
          "name": "take",
          "type": "uint256"
        }
      ],
      "name": "getReporters",
      "outputs": [
        {
          "components": [
            {
              "internalType": "uint128",
              "name": "id",
              "type": "uint128"
            },
            {
              "internalType": "address",
              "name": "account",
              "type": "address"
            },
            {
              "internalType": "string",
              "name": "name",
              "type": "string"
            },
            {
              "internalType": "string",
              "name": "url",
              "type": "string"
            },
            {
              "internalType": "enum HapiCore.ReporterRole",
              "name": "role",
              "type": "uint8"
            },
            {
              "internalType": "enum HapiCore.ReporterStatus",
              "name": "status",
              "type": "uint8"
            },
            {
              "internalType": "uint256",
              "name": "stake",
              "type": "uint256"
            },
            {
              "internalType": "uint256",
              "name": "unlock_timestamp",
              "type": "uint256"
            }
          ],
          "internalType": "struct HapiCore.Reporter[]",
          "name": "",
          "type": "tuple[]"
        }
      ],
      "stateMutability": "view",
      "type": "function"
    },
    {
      "inputs": [
        {
          "internalType": "bytes32",
          "name": "role",
          "type": "bytes32"
        }
      ],
      "name": "getRoleAdmin",
      "outputs": [
        {
          "internalType": "bytes32",
          "name": "",
          "type": "bytes32"
        }
      ],
      "stateMutability": "view",
      "type": "function"
    },
    {
      "inputs": [
        {
          "internalType": "bytes32",
          "name": "role",
          "type": "bytes32"
        },
        {
          "internalType": "address",
          "name": "account",
          "type": "address"
        }
      ],
      "name": "grantRole",
      "outputs": [],
      "stateMutability": "nonpayable",
      "type": "function"
    },
    {
      "inputs": [
        {
          "internalType": "bytes32",
          "name": "role",
          "type": "bytes32"
        },
        {
          "internalType": "address",
          "name": "account",
          "type": "address"
        }
      ],
      "name": "hasRole",
      "outputs": [
        {
          "internalType": "bool",
          "name": "",
          "type": "bool"
        }
      ],
      "stateMutability": "view",
      "type": "function"
    },
    {
      "inputs": [],
      "name": "initialize",
      "outputs": [],
      "stateMutability": "nonpayable",
      "type": "function"
    },
    {
      "inputs": [],
      "name": "owner",
      "outputs": [
        {
          "internalType": "address",
          "name": "",
          "type": "address"
        }
      ],
      "stateMutability": "view",
      "type": "function"
    },
    {
      "inputs": [],
      "name": "renounceOwnership",
      "outputs": [],
      "stateMutability": "nonpayable",
      "type": "function"
    },
    {
      "inputs": [
        {
          "internalType": "bytes32",
          "name": "role",
          "type": "bytes32"
        },
        {
          "internalType": "address",
          "name": "callerConfirmation",
          "type": "address"
        }
      ],
      "name": "renounceRole",
      "outputs": [],
      "stateMutability": "nonpayable",
      "type": "function"
    },
    {
      "inputs": [
        {
          "internalType": "bytes32",
          "name": "role",
          "type": "bytes32"
        },
        {
          "internalType": "address",
          "name": "account",
          "type": "address"
        }
      ],
      "name": "revokeRole",
      "outputs": [],
      "stateMutability": "nonpayable",
      "type": "function"
    },
    {
      "inputs": [],
      "name": "rewardConfiguration",
      "outputs": [
        {
          "components": [
            {
              "internalType": "address",
              "name": "token",
              "type": "address"
            },
            {
              "internalType": "uint256",
              "name": "address_confirmation_reward",
              "type": "uint256"
            },
            {
              "internalType": "uint256",
              "name": "address_tracer_reward",
              "type": "uint256"
            },
            {
              "internalType": "uint256",
              "name": "asset_confirmation_reward",
              "type": "uint256"
            },
            {
              "internalType": "uint256",
              "name": "asset_tracer_reward",
              "type": "uint256"
            }
          ],
          "internalType": "struct HapiCore.RewardConfiguration",
          "name": "",
          "type": "tuple"
        }
      ],
      "stateMutability": "view",
      "type": "function"
    },
    {
      "inputs": [
        {
          "internalType": "address",
          "name": "_authority",
          "type": "address"
        }
      ],
      "name": "setAuthority",
      "outputs": [],
      "stateMutability": "nonpayable",
      "type": "function"
    },
    {
      "inputs": [],
      "name": "stakeConfiguration",
      "outputs": [
        {
          "components": [
            {
              "internalType": "address",
              "name": "token",
              "type": "address"
            },
            {
              "internalType": "uint256",
              "name": "unlock_duration",
              "type": "uint256"
            },
            {
              "internalType": "uint256",
              "name": "validator_stake",
              "type": "uint256"
            },
            {
              "internalType": "uint256",
              "name": "tracer_stake",
              "type": "uint256"
            },
            {
              "internalType": "uint256",
              "name": "publisher_stake",
              "type": "uint256"
            },
            {
              "internalType": "uint256",
              "name": "authority_stake",
              "type": "uint256"
            }
          ],
          "internalType": "struct HapiCore.StakeConfiguration",
          "name": "",
          "type": "tuple"
        }
      ],
      "stateMutability": "view",
      "type": "function"
    },
    {
      "inputs": [
        {
          "internalType": "bytes4",
          "name": "interfaceId",
          "type": "bytes4"
        }
      ],
      "name": "supportsInterface",
      "outputs": [
        {
          "internalType": "bool",
          "name": "",
          "type": "bool"
        }
      ],
      "stateMutability": "view",
      "type": "function"
    },
    {
      "inputs": [
        {
          "internalType": "address",
          "name": "newOwner",
          "type": "address"
        }
      ],
      "name": "transferOwnership",
      "outputs": [],
      "stateMutability": "nonpayable",
      "type": "function"
    },
    {
      "inputs": [],
      "name": "unstake",
      "outputs": [],
      "stateMutability": "nonpayable",
      "type": "function"
    },
    {
      "inputs": [
        {
          "internalType": "address",
          "name": "addr",
          "type": "address"
        },
        {
          "internalType": "uint8",
          "name": "risk",
          "type": "uint8"
        },
        {
          "internalType": "enum HapiCore.Category",
          "name": "category",
          "type": "uint8"
        },
        {
          "internalType": "uint128",
          "name": "case_id",
          "type": "uint128"
        }
      ],
      "name": "updateAddress",
      "outputs": [],
      "stateMutability": "nonpayable",
      "type": "function"
    },
    {
      "inputs": [
        {
          "internalType": "address",
          "name": "addr",
          "type": "address"
        },
        {
          "internalType": "uint256",
          "name": "asset_id",
          "type": "uint256"
        },
        {
          "internalType": "uint8",
          "name": "risk",
          "type": "uint8"
        },
        {
          "internalType": "enum HapiCore.Category",
          "name": "category",
          "type": "uint8"
        },
        {
          "internalType": "uint128",
          "name": "case_id",
          "type": "uint128"
        }
      ],
      "name": "updateAsset",
      "outputs": [],
      "stateMutability": "nonpayable",
      "type": "function"
    },
    {
      "inputs": [
        {
          "internalType": "uint128",
          "name": "id",
          "type": "uint128"
        },
        {
          "internalType": "string",
          "name": "name",
          "type": "string"
        },
        {
          "internalType": "string",
          "name": "url",
          "type": "string"
        },
        {
          "internalType": "enum HapiCore.CaseStatus",
          "name": "status",
          "type": "uint8"
        }
      ],
      "name": "updateCase",
      "outputs": [],
      "stateMutability": "nonpayable",
      "type": "function"
    },
    {
      "inputs": [
        {
          "internalType": "uint128",
          "name": "id",
          "type": "uint128"
        },
        {
          "internalType": "address",
          "name": "account",
          "type": "address"
        },
        {
          "internalType": "enum HapiCore.ReporterRole",
          "name": "role",
          "type": "uint8"
        },
        {
          "internalType": "string",
          "name": "name",
          "type": "string"
        },
        {
          "internalType": "string",
          "name": "url",
          "type": "string"
        }
      ],
      "name": "updateReporter",
      "outputs": [],
      "stateMutability": "nonpayable",
      "type": "function"
    },
    {
      "inputs": [
        {
          "internalType": "address",
          "name": "token",
          "type": "address"
        },
        {
          "internalType": "uint256",
          "name": "address_confirmation_reward",
          "type": "uint256"
        },
        {
          "internalType": "uint256",
          "name": "address_tracer_reward",
          "type": "uint256"
        },
        {
          "internalType": "uint256",
          "name": "asset_confirmation_reward",
          "type": "uint256"
        },
        {
          "internalType": "uint256",
          "name": "asset_tracer_reward",
          "type": "uint256"
        }
      ],
      "name": "updateRewardConfiguration",
      "outputs": [],
      "stateMutability": "nonpayable",
      "type": "function"
    },
    {
      "inputs": [
        {
          "internalType": "address",
          "name": "token",
          "type": "address"
        },
        {
          "internalType": "uint256",
          "name": "unlock_duration",
          "type": "uint256"
        },
        {
          "internalType": "uint256",
          "name": "validator_stake",
          "type": "uint256"
        },
        {
          "internalType": "uint256",
          "name": "tracer_stake",
          "type": "uint256"
        },
        {
          "internalType": "uint256",
          "name": "publisher_stake",
          "type": "uint256"
        },
        {
          "internalType": "uint256",
          "name": "authority_stake",
          "type": "uint256"
        }
      ],
      "name": "updateStakeConfiguration",
      "outputs": [],
      "stateMutability": "nonpayable",
      "type": "function"
    }
  ],
  "bytecode": "0x608060405234801561001057600080fd5b50614a1c806100206000396000f3fe608060405234801561001057600080fd5b506004361061027f5760003560e01c80638129fc1c1161015c578063ae22c57d116100ce578063d547741f11610087578063d547741f14610616578063dfd01ff314610629578063e3cc937b14610649578063e7a5a6a814610669578063f2fde38b14610689578063f4c12a4d1461069c57600080fd5b8063ae22c57d14610550578063b962fece14610570578063bf7e214f14610583578063c0df655014610596578063cdbb02af146105ee578063d3c0349f146105f657600080fd5b8063970ad9b211610120578063970ad9b2146104e75780639fa90227146104fa578063a0aead4d1461051a578063a163f51a14610522578063a217fddf14610535578063a4e7f8051461053d57600080fd5b80638129fc1c146104625780638436688b1461046a5780638da5cb5b1461047d57806391d14854146104c157806393ec6264146104d457600080fd5b80634a3fba0e116101f55780636e3b47fc116101b95780636e3b47fc146103bc578063715018a6146103d157806371795fc3146103d95780637a9e5e4b146103e157806380a6d4b4146103f457806380a799b71461044257600080fd5b80634a3fba0e1461036f5780635a69849f146103845780635efa519d1461038c5780636a9c3eee146103945780636c08faf7146103b457600080fd5b8063248a9ca311610247578063248a9ca3146102fa5780632def66201461031b5780632f2ff15d1461032357806333c520ff1461033657806336568abe1461034957806346039ebe1461035c57600080fd5b806301ffc9a71461028457806306ccff47146102ac5780630edf9661146102c1578063164f81c3146102d45780631667b41d146102e7575b600080fd5b610297610292366004613dc2565b6106bc565b60405190151581526020015b60405180910390f35b6102bf6102ba366004613e46565b6106f3565b005b6102bf6102cf366004613f3c565b610a7a565b6102bf6102e2366004613fd7565b610cd2565b6102bf6102f5366004613f3c565b610ef6565b61030d610308366004613ff2565b61106f565b6040519081526020016102a3565b6102bf611091565b6102bf61033136600461400b565b61121d565b6102bf610344366004614037565b61123f565b6102bf61035736600461400b565b6113b0565b6102bf61036a3660046140c1565b6113e8565b61030d6000805160206149a783398151915281565b6102bf611488565b600d5461030d565b6103a76103a2366004614103565b6116cd565b6040516102a3919061423a565b600f5461030d565b6103c461190c565b6040516102a3919061424d565b6102bf6119d1565b6102bf6119e5565b6102bf6103ef366004613fd7565b611ac8565b6103fc611b3c565b6040516102a3919081516001600160a01b031681526020808301519082015260408083015190820152606080830151908201526080918201519181019190915260a00190565b61045561045036600461425b565b611bdd565b6040516102a391906142f8565b6102bf611dd8565b6102bf610478366004614346565b611f1b565b7f9016d09d72d40fdae2fd8ceac6b6234c7706214fd39c1cd1e609a0528c199300546001600160a01b03165b6040516001600160a01b0390911681526020016102a3565b6102976104cf36600461400b565b61215c565b6102bf6104e23660046143b9565b612194565b6102bf6104f5366004614403565b612241565b61050d610508366004614103565b6124cb565b6040516102a391906144de565b60145461030d565b6102bf6105303660046144f1565b6126e3565b61030d600081565b6102bf61054b36600461451b565b612958565b61056361055e366004613fd7565b612ba2565b6040516102a391906145c5565b6102bf61057e3660046145d3565b612c5a565b6016546104a9906001600160a01b031681565b61059e61301e565b6040516102a3919081516001600160a01b031681526020808301519082015260408083015190820152606080830151908201526080808301519082015260a0918201519181019190915260c00190565b60115461030d565b6105fe6130ce565b6040516001600160801b0390911681526020016102a3565b6102bf61062436600461400b565b6130ea565b61063c6106373660046144f1565b613106565b6040516102a39190614625565b61065c61065736600461425b565b6131d1565b6040516102a39190614633565b61067c61067736600461425b565b6134e1565b6040516102a39190614697565b6102bf610697366004613fd7565b6137eb565b6106af6106aa36600461425b565b613829565b6040516102a391906146ee565b60006001600160e01b03198216637965db0b60e01b14806106ed57506301ffc9a760e01b6001600160e01b03198316145b92915050565b6001600160801b038084166000908152600e6020526040812054909116900361073f57604051638dd3899f60e01b81526001600160801b03841660048201526024015b60405180910390fd5b60016001600160801b0384166000908152600e6020526040902060020154600160801b900460ff16600181111561077857610778614164565b146107c1576001600160801b0383166000908152600e60205260409081902060020154905163664e2e6d60e11b8152610736918591600160801b90910460ff1690600401614730565b6001600160a01b03848116600090815260106020526040902054161561080557604051639f2277f360e01b81526001600160a01b0385166004820152602401610736565b600a8260ff16111561082f57604051636cc2e1f360e11b815260ff83166004820152602401610736565b60006108396130ce565b9050600061084561190c565b9050600281600381111561085b5761085b614164565b1415801561087b5750600381600381111561087857610878614164565b14155b80156108995750600181600381111561089657610896614164565b14155b156108c557335b6040516310b59d5360e01b81526001600160a01b039091166004820152602401610736565b6040518060c00160405280876001600160a01b03168152602001866001600160801b03168152602001836001600160801b0316815260200160006001600160401b031681526020018560ff16815260200184601481111561092857610928614164565b90526001600160a01b038088166000908152601060209081526040918290208451815494166001600160a01b0319909416939093178355830151908301516001600160801b03908116600160801b0291161760018201556060820151600282018054608085015160ff16600160401b0268ffffffffffffffffff199091166001600160401b03909316929092179190911780825560a0840151919060ff60481b1916600160481b8360148111156109e1576109e1614164565b021790555050601180546001810182556000919091527f31ecc21a745e3968a04e9570e4425bc18fa8019c68028196b546d1669c200c680180546001600160a01b0319166001600160a01b0389169081179091556040519091507f22d837c7f0b78979c1dd4829ddca8f9d6b29bbfea52b6b5c1b8d6b7a8a9bb1dd90610a6a908790879061474d565b60405180910390a2505050505050565b6000805160206149a7833981519152610a92816139ec565b6001600160801b038087166000908152600b60205260409020541615610ad657604051632d9f4a6160e21b81526001600160801b0387166004820152602401610736565b604051806101000160405280876001600160801b03168152602001866001600160a01b03168152602001848152602001838152602001856003811115610b1e57610b1e614164565b8152602001600081526000602080830182905260409283018290526001600160801b038a81168352600b825291839020845181546001600160801b03191693169290921782558301516001820180546001600160a01b0319166001600160a01b03909216919091179055908201516002820190610b9b90826147ee565b5060608201516003820190610bb090826147ee565b50608082015160048201805460ff19166001836003811115610bd457610bd4614164565b021790555060a082015160048201805461ff001916610100836002811115610bfe57610bfe614164565b021790555060c0820151600582015560e0909101516006909101556001600160a01b0385166000908152600c602052604080822080546001600160801b0319166001600160801b038a8116918217909255600d805460018181018355919095527fd7b6990105719101dabeb77144f2a3385c8033acd3af97e9423a695e81ad1eb560028604018054959091166010026101000a9283021990941691810291909117909255517f4a2bdcb7beb45d783d09251a8df3aabf3bcacafd219eea4033dbd29ce61f72ca90610a6a90889088906148ad565b6001600160a01b0381811660009081526010602052604090205416610d15576040516370de323160e01b81526001600160a01b0382166004820152602401610736565b6000610d1f6130ce565b90506000610d2b61190c565b90506002816003811115610d4157610d41614164565b14158015610d6157506000816003811115610d5e57610d5e614164565b14155b15610d6c57336108a0565b6001600160a01b0383166000908152601060205260409020600101546001600160801b03600160801b909104811690831603610dd557604051632de0e9eb60e21b81526001600160a01b03841660048201526001600160801b0383166024820152604401610736565b6001600160a01b03831660009081526012602090815260408083206001600160801b038616845290915290205460ff1615610e3d5760405163347a84ff60e11b81526001600160a01b03841660048201526001600160801b0383166024820152604401610736565b6001600160a01b03831660008181526012602090815260408083206001600160801b03871684528252808320805460ff191660011790559282526010905290812060020180546001600160401b031691610e96836148e0565b91906101000a8154816001600160401b0302191690836001600160401b0316021790555050826001600160a01b03167feff4eb43f542d5506d36e6983edd577ff999532458acad704352b2197e17f7f060405160405180910390a2505050565b6000805160206149a7833981519152610f0e816139ec565b6001600160801b038087166000908152600b60205260408120549091169003610f555760405163e9f0721b60e01b81526001600160801b0387166004820152602401610736565b6001600160801b0386166000908152600b602090815260408083206001808201546001600160a01b03168552600c909352922080546001600160801b0319169055600482018054879260ff1990911690836003811115610fb757610fb7614164565b02179055506001810180546001600160a01b0319166001600160a01b03881617905560028101610fe785826147ee565b5060038101610ff684826147ee565b506001600160a01b0386166000908152600c60205260409081902080546001600160801b0319166001600160801b038a1690811790915590517f54331cc820a309f463d0e91653284cac96bf00463bdbfb41bfc52edb2f9fe8ef9061105e90899089906148ad565b60405180910390a250505050505050565b60009081526000805160206149c7833981519152602052604090206001015490565b600061109b6130ce565b9050806001600160801b03166000036110b457336108a0565b6001600160801b0381166000908152600b6020526040902060026004820154610100900460ff1660028111156110ec576110ec614164565b1461111957600481810154604051632cd5ceff60e01b8152610736928592610100900460ff169101614906565b42816006015411156111565760068101546040516304296edb60e41b81526001600160801b03841660048201526024810191909152604401610736565b600080546001600160a01b031663a9059cbb3360058501546040516001600160e01b031960e085901b1681526001600160a01b03909216600483015260248201526044016020604051808303816000875af11580156111b9573d6000803e3d6000fd5b505050506040513d601f19601f820116820180604052508101906111dd9190614923565b9050806111fd57604051636a89c7cb60e11b815260040160405180910390fd5b5060048101805461ff001916905560006005820181905560069091015550565b6112268261106f565b61122f816139ec565b61123983836139f6565b50505050565b600061124961190c565b9050600281600381111561125f5761125f614164565b1415801561127f5750600381600381111561127c5761127c614164565b14155b1561128a57336108a0565b6001600160801b038086166000908152600e60205260408120805490921690036112d257604051638dd3899f60e01b81526001600160801b0387166004820152602401610736565b6112da6130ce565b60028201546001600160801b0390811691161480159061130c5750600382600381111561130957611309614164565b14155b1561132a57604051634e332f8d60e11b815260040160405180910390fd5b6001810161133886826147ee565b506003810161134785826147ee565b5060028101805484919060ff60801b1916600160801b83600181111561136f5761136f614164565b02179055506040516001600160801b038716907f397747afbc50019ab3ec16a1060eb55eba113694b68b0b71c8fd54ff1b352a8b90600090a2505050505050565b6001600160a01b03811633146113d95760405163334bd91960e11b815260040160405180910390fd5b6113e38282613a9b565b505050565b6000805160206149a7833981519152611400816139ec565b600680546001600160a01b0319166001600160a01b038816908117909155600786905560088590556009849055600a8390556040805191825260208201879052810185905260608101849052608081018390527f32e0b860410f1106c07d9f060344651b8206f093473ea083748d39944aa75c1f9060a00160405180910390a1505050505050565b60006114926130ce565b9050806001600160801b03166000036114ab57336108a0565b6001600160801b0381166000908152600b60205260408120906004820154610100900460ff1660028111156114e2576114e2614164565b1461150f57600481810154604051632cd5ceff60e01b8152610736928592610100900460ff169101614906565b600080600483015460ff16600381111561152b5761152b614164565b0361153957506002546115b0565b6002600483015460ff16600381111561155457611554614164565b0361156257506004546115b0565b6001600483015460ff16600381111561157d5761157d614164565b0361158b57506003546115b0565b6003600483015460ff1660038111156115a6576115a6614164565b036115b057506005545b806000036115d1576040516350cd337560e01b815260040160405180910390fd5b600080546001600160a01b03166323b872dd336040516001600160e01b031960e084901b1681526001600160a01b039091166004820152306024820152604481018590526064016020604051808303816000875af1158015611637573d6000803e3d6000fd5b505050506040513d601f19601f8201168201806040525081019061165b9190614923565b90508061167b57604051636a89c7cb60e11b815260040160405180910390fd5b60048301805461ff001916610100179055600583018290556040516001600160801b038516907f965ff28c8929173305d53bda17c164fafa0ff8141c7eb29e6113ccb677d4690290600090a250505050565b6116d5613ced565b6001600160801b038083166000908152600b6020526040812054909116900361171c5760405163e9f0721b60e01b81526001600160801b0383166004820152602401610736565b6001600160801b038083166000908152600b60209081526040918290208251610100810184528154909416845260018101546001600160a01b031691840191909152600281018054919284019161177290614764565b80601f016020809104026020016040519081016040528092919081815260200182805461179e90614764565b80156117eb5780601f106117c0576101008083540402835291602001916117eb565b820191906000526020600020905b8154815290600101906020018083116117ce57829003601f168201915b5050505050815260200160038201805461180490614764565b80601f016020809104026020016040519081016040528092919081815260200182805461183090614764565b801561187d5780601f106118525761010080835404028352916020019161187d565b820191906000526020600020905b81548152906001019060200180831161186057829003601f168201915b5050509183525050600482015460209091019060ff1660038111156118a4576118a4614164565b60038111156118b5576118b5614164565b81526020016004820160019054906101000a900460ff1660028111156118dd576118dd614164565b60028111156118ee576118ee614164565b81526005820154602082015260069091015460409091015292915050565b6000806119176130ce565b9050806001600160801b031660000361193057336108a0565b60016001600160801b0382166000908152600b6020526040902060040154610100900460ff16600281111561196757611967614164565b146119ae576001600160801b0381166000908152600b6020526040908190206004908101549151632cd5ceff60e01b815261073692849261010090910460ff169101614906565b6001600160801b03166000908152600b602052604090206004015460ff16919050565b6119d9613b17565b6119e36000613b72565b565b60006119ef6130ce565b9050806001600160801b0316600003611a0857336108a0565b6001600160801b0381166000908152600b6020526040902060016004820154610100900460ff166002811115611a4057611a40614164565b14611a6d57600481810154604051632cd5ceff60e01b8152610736928592610100900460ff169101614906565b60048101805461ff001916610200179055600154611a8b9042614945565b60068201556040516001600160801b038316907f932bf09d77dc986eab10d9bc9fe0321a029f72806135ebb9adc46b994e6010ca90600090a25050565b6000611ad3816139ec565b6001600160a01b03821615611b0957601654611b07906000805160206149a7833981519152906001600160a01b0316613a9b565b505b601680546001600160a01b0319166001600160a01b0384161790556113e36000805160206149a7833981519152836139f6565b611b776040518060a0016040528060006001600160a01b03168152602001600081526020016000815260200160008152602001600081525090565b6006546001600160a01b0316611b9f57604051622dc1c960e71b815260040160405180910390fd5b506040805160a0810182526006546001600160a01b031681526007546020820152600854918101919091526009546060820152600a54608082015290565b601454606090808410611c24576040805160008082526020820190925290611c1b565b611c08613d55565b815260200190600190039081611c005790505b509150506106ed565b82611c2f8583614958565b811115611c4357611c408583614958565b90505b6000816001600160401b03811115611c5d57611c5d613e9a565b604051908082528060200260200182016040528015611c9657816020015b611c83613d55565b815260200190600190039081611c7b5790505b50905060005b82811015611dce5760006014611cb2838a614945565b81548110611cc257611cc261496b565b60009182526020808320604080518082018252600294850290920180546001600160a01b039081168085526001928301548587019081529088526013865283882090518852855295829020825160e081018452815490971687529081015493860193909352928201546001600160801b0380821694860194909452600160801b9004909216606084015260038101546001600160401b038116608085015260ff600160401b8204811660a0860152929450909160c0840191600160481b9004166014811115611d9357611d93614164565b6014811115611da457611da4614164565b81525050838381518110611dba57611dba61496b565b602090810291909101015250600101611c9c565b5095945050505050565b7ff0c57e16840df040f15088dc2f81fe391c3923bec73e23a9662efc9c229c6a008054600160401b810460ff1615906001600160401b0316600081158015611e1d5750825b90506000826001600160401b03166001148015611e395750303b155b905081158015611e47575080155b15611e655760405163f92ee8a960e01b815260040160405180910390fd5b845467ffffffffffffffff191660011785558315611e8f57845460ff60401b1916600160401b1785555b611e9833613be3565b611ea0613bf4565b611eab6000336139f6565b50611ec560006000805160206149a7833981519152613bfc565b611ece33611ac8565b8315611f1457845460ff60401b19168555604051600181527fc7f505b2f371ae2175ee4913f4499e1f2633a7b5936321eed1cdaeb6115181d29060200160405180910390a15b5050505050565b6000611f2561190c565b90506002816003811115611f3b57611f3b614164565b14158015611f5b57506003816003811115611f5857611f58614164565b14155b15611f6657336108a0565b6000611f706130ce565b9050846001600160801b0316600003611f8957336108a0565b6001600160801b038086166000908152600e60205260409020541615611fcd57604051632d9f4a6160e21b81526001600160801b0386166004820152602401610736565b6040518060a00160405280866001600160801b03168152602001858152602001826001600160801b0316815260200160018081111561200e5761200e614164565b815260209081018590526001600160801b038781166000908152600e835260409020835181546001600160801b031916921691909117815590820151600182019061205990826147ee565b5060408201516002820180546001600160801b039092166001600160801b031983168117825560608501519270ffffffffffffffffffffffffffffffffff191617600160801b8360018111156120b1576120b1614164565b0217905550608082015160038201906120ca90826147ee565b5050600f8054600181810183556000928352600282047f8d1108e10bcb7c27dddfc02ed9d693a074039d026cf4ea4240b40f7d581ac8020180546001600160801b03808c16601095909416949094026101000a83810294021916929092179091556040519092507f2930d8a77ae3c8c305b32b2ce9c4fce2f15a4a13452309eb2124264863da92e69190a25050505050565b60009182526000805160206149c7833981519152602090815260408084206001600160a01b0393909316845291905290205460ff1690565b6000805160206149a78339815191526121ac816139ec565b600080546001600160a01b0319166001600160a01b0389169081179091556001879055600286905560038590556004849055600583905560408051918252602082018890528101869052606081018590526080810184905260a081018390527f39656fb6c68bf3a5aba0c4dc49f83c620e709c9a937b2092ddc4ce66202ae1a29060c00160405180910390a150505050505050565b6001600160a01b038581166000908152601360209081526040808320888452909152902054166122965760405163be5d256960e01b81526001600160a01b038616600482015260248101859052604401610736565b600a8360ff1611156122c057604051636cc2e1f360e11b815260ff84166004820152602401610736565b6001600160801b038082166000908152600e6020526040812054909116900361230757604051638dd3899f60e01b81526001600160801b0382166004820152602401610736565b60006123116130ce565b9050600061231d61190c565b6001600160a01b03881660009081526013602090815260408083208a84529091529020600201549091506001600160801b03838116600160801b909204161480159061237b5750600381600381111561237857612378614164565b14155b1561238657336108a0565b6001600160a01b03871660009081526013602090815260408083208984529091529020600201546001600160801b0384811691161461241e5760018160038111156123d3576123d3614164565b036123de57336108a0565b6001600160a01b0387166000908152601360209081526040808320898452909152902060020180546001600160801b0319166001600160801b0385161790555b6001600160a01b03871660009081526013602090815260408083208984529091529020600301805460ff60401b198116600160401b60ff891602908117835586929161ffff60401b191660ff60481b1990911617600160481b83601481111561248957612489614164565b0217905550866001600160a01b03167fe218f72525d1b3344c0262210bc3d7984088b5204a24c1067ac37ce80278c46487878760405161105e93929190614981565b6040805160a08101825260008082526060602083018190529282018190528282015260808101919091526001600160801b038083166000908152600e6020526040812054909116900361253c57604051638dd3899f60e01b81526001600160801b0383166004820152602401610736565b6001600160801b038083166000908152600e6020908152604091829020825160a08101909352805490931682526001830180549293929184019161257f90614764565b80601f01602080910402602001604051908101604052809291908181526020018280546125ab90614764565b80156125f85780601f106125cd576101008083540402835291602001916125f8565b820191906000526020600020905b8154815290600101906020018083116125db57829003601f168201915b505050918352505060028201546001600160801b0381166020830152604090910190600160801b900460ff16600181111561263557612635614164565b600181111561264657612646614164565b815260200160038201805461265a90614764565b80601f016020809104026020016040519081016040528092919081815260200182805461268690614764565b80156126d35780601f106126a8576101008083540402835291602001916126d3565b820191906000526020600020905b8154815290600101906020018083116126b657829003601f168201915b5050505050815250509050919050565b6001600160a01b038281166000908152601360209081526040808320858452909152902054166127385760405163be5d256960e01b81526001600160a01b038316600482015260248101829052604401610736565b60006127426130ce565b9050600061274e61190c565b9050600281600381111561276457612764614164565b141580156127845750600081600381111561278157612781614164565b14155b1561278f57336108a0565b6001600160a01b03841660009081526013602090815260408083208684529091529020600201546001600160801b03600160801b90910481169083160361280a5760405163996a4cfb60e01b81526001600160a01b0385166004820152602481018490526001600160801b0383166044820152606401610736565b6001600160a01b038416600090815260156020908152604080832086845282528083206001600160801b038616845290915290205460ff16156128815760405163de04e71760e01b81526001600160a01b0385166004820152602481018490526001600160801b0383166044820152606401610736565b6001600160a01b038416600081815260156020908152604080832087845282528083206001600160801b03871684528252808320805460ff1916600117905592825260138152828220868352905290812060030180546001600160401b0316916128ea836148e0565b91906101000a8154816001600160401b0302191690836001600160401b0316021790555050836001600160a01b03167f91002e04cd6463a010ba21dab0e60a19c8277cf9c3f1490ef422001538b7feb48460405161294a91815260200190565b60405180910390a250505050565b6001600160a01b038481166000908152601060205260409020541661299b576040516370de323160e01b81526001600160a01b0385166004820152602401610736565b600a8360ff1611156129c557604051636cc2e1f360e11b815260ff84166004820152602401610736565b6001600160801b038082166000908152600e60205260408120549091169003612a0c57604051638dd3899f60e01b81526001600160801b0382166004820152602401610736565b6000612a166130ce565b90506000612a2261190c565b6001600160a01b0387166000908152601060205260409020600101549091506001600160801b03838116600160801b9092041614801590612a7557506003816003811115612a7257612a72614164565b14155b15612a8057336108a0565b6001600160a01b0386166000908152601060205260409020600101546001600160801b03848116911614612b02576001816003811115612ac257612ac2614164565b03612acd57336108a0565b6001600160a01b038616600090815260106020526040902060010180546001600160801b0319166001600160801b0385161790555b6001600160a01b0386166000908152601060205260409020600201805460ff60401b198116600160401b60ff891602908117835586929161ffff60401b191660ff60481b1990911617600160481b836014811115612b6257612b62614164565b0217905550856001600160a01b03167f9762482b1ff0ec8f8e1cc60e881ae79be8c4545c86dd89c2666ecee6c9cf22ee8686604051610a6a92919061474d565b612baa613d8f565b6001600160a01b03808316600090815260106020908152604091829020825160c0810184528154909416845260018101546001600160801b0380821693860193909352600160801b90049091169183019190915260028101546001600160401b038116606084015260ff600160401b82048116608085015260a0840191600160481b9004166014811115612c4057612c40614164565b6014811115612c5157612c51614164565b90525092915050565b6001600160801b038084166000908152600e60205260408120549091169003612ca157604051638dd3899f60e01b81526001600160801b0384166004820152602401610736565b60016001600160801b0384166000908152600e6020526040902060020154600160801b900460ff166001811115612cda57612cda614164565b14612d23576001600160801b0383166000908152600e60205260409081902060020154905163664e2e6d60e11b8152610736918591600160801b90910460ff1690600401614730565b6001600160a01b0385811660009081526013602090815260408083208884529091529020541615612d7957604051630fee2b8560e31b81526001600160a01b038616600482015260248101859052604401610736565b600a8260ff161115612da357604051636cc2e1f360e11b815260ff83166004820152602401610736565b6000612dad6130ce565b90506000612db961190c565b90506002816003811115612dcf57612dcf614164565b14158015612def57506003816003811115612dec57612dec614164565b14155b8015612e0d57506001816003811115612e0a57612e0a614164565b14155b15612e1857336108a0565b6040518060e00160405280886001600160a01b03168152602001878152602001866001600160801b03168152602001836001600160801b0316815260200160006001600160401b031681526020018560ff168152602001846014811115612e8157612e81614164565b90526001600160a01b0380891660009081526013602090815260408083208b84528252918290208451815494166001600160a01b0319909416939093178355830151600183015582015160608301516001600160801b03908116600160801b029116176002820155608082015160038201805460a085015160ff16600160401b0268ffffffffffffffffff199091166001600160401b03909316929092179190911780825560c0840151919060ff60481b1916600160481b836014811115612f4b57612f4b614164565b0217905550506040805180820182526001600160a01b038a8116808352602083018b81526014805460018101825560009190915293517fce6d7b5282bd9a3661ae061feed1dbda4e52ab073b1f9285be6e155d9c38d4ec600290950294850180546001600160a01b031916919094161790925590517fce6d7b5282bd9a3661ae061feed1dbda4e52ab073b1f9285be6e155d9c38d4ed9092019190915590519091507f1f4ad547e66903000ee13293d195a2d5b7bac1aead56b1a5132e15e140bd1c609061105e90899088908890614981565b6130606040518060c0016040528060006001600160a01b0316815260200160008152602001600081526020016000815260200160008152602001600081525090565b6000546001600160a01b031661308857604051622dc1c960e71b815260040160405180910390fd5b506040805160c0810182526000546001600160a01b031681526001546020820152600254918101919091526003546060820152600454608082015260055460a082015290565b336000908152600c60205260409020546001600160801b031690565b6130f38261106f565b6130fc816139ec565b6112398383613a9b565b61310e613d55565b6001600160a01b038084166000908152601360209081526040808320868452825291829020825160e0810184528154909416845260018101549184019190915260028101546001600160801b0380821693850193909352600160801b9004909116606083015260038101546001600160401b038116608084015260ff600160401b8204811660a085015260c0840191600160481b90041660148111156131b6576131b6614164565b60148111156131c7576131c7614164565b9052509392505050565b600d54606090808410613217576040805160008082526020820190925290611c1b565b6131fc613ced565b8152602001906001900390816131f4579050509150506106ed565b826132228583614958565b811115613236576132338583614958565b90505b6000816001600160401b0381111561325057613250613e9a565b60405190808252806020026020018201604052801561328957816020015b613276613ced565b81526020019060019003908161326e5790505b50905060005b82811015611dce57600b6000600d6132a7848b614945565b815481106132b7576132b761496b565b600091825260208083206002808404909101546001600160801b03601060019586160261010090810a909204811687528684019790975260409586019094208551948501865280549096168452918501546001600160a01b0316908301528301805491939284019161332890614764565b80601f016020809104026020016040519081016040528092919081815260200182805461335490614764565b80156133a15780601f10613376576101008083540402835291602001916133a1565b820191906000526020600020905b81548152906001019060200180831161338457829003601f168201915b505050505081526020016003820180546133ba90614764565b80601f01602080910402602001604051908101604052809291908181526020018280546133e690614764565b80156134335780601f1061340857610100808354040283529160200191613433565b820191906000526020600020905b81548152906001019060200180831161341657829003601f168201915b5050509183525050600482015460209091019060ff16600381111561345a5761345a614164565b600381111561346b5761346b614164565b81526020016004820160019054906101000a900460ff16600281111561349357613493614164565b60028111156134a4576134a4614164565b8152602001600582015481526020016006820154815250508282815181106134ce576134ce61496b565b602090810291909101015260010161328f565b600f54606090808410613549576040805160008082526020820190925290611c1b565b6040805160a0810182526000808252606060208301819052928201819052828201526080810191909152815260200190600190039081613504579050509150506106ed565b826135548583614958565b811115613568576135658583614958565b90505b6000816001600160401b0381111561358257613582613e9a565b6040519080825280602002602001820160405280156135dd57816020015b6040805160a08101825260008082526060602083018190529282018190528282015260808101919091528152602001906001900390816135a05790505b50905060005b82811015611dce57600e6000600f6135fb848b614945565b8154811061360b5761360b61496b565b600091825260208083206002830401546001600160801b0360106001948516026101000a90910481168552848201959095526040938401909220835160a0810190945280549094168352830180549293929184019161366990614764565b80601f016020809104026020016040519081016040528092919081815260200182805461369590614764565b80156136e25780601f106136b7576101008083540402835291602001916136e2565b820191906000526020600020905b8154815290600101906020018083116136c557829003601f168201915b505050918352505060028201546001600160801b0381166020830152604090910190600160801b900460ff16600181111561371f5761371f614164565b600181111561373057613730614164565b815260200160038201805461374490614764565b80601f016020809104026020016040519081016040528092919081815260200182805461377090614764565b80156137bd5780601f10613792576101008083540402835291602001916137bd565b820191906000526020600020905b8154815290600101906020018083116137a057829003601f168201915b5050505050815250508282815181106137d8576137d861496b565b60209081029190910101526001016135e3565b6137f3613b17565b6001600160a01b03811661381d57604051631e4fbdf760e01b815260006004820152602401610736565b61382681613b72565b50565b60115460609080841061386f576040805160008082526020820190925290611c1b565b613854613d8f565b81526020019060019003908161384c579050509150506106ed565b8261387a8583614958565b81111561388e5761388b8583614958565b90505b6000816001600160401b038111156138a8576138a8613e9a565b6040519080825280602002602001820160405280156138e157816020015b6138ce613d8f565b8152602001906001900390816138c65790505b50905060005b82811015611dce576010600060116138ff848b614945565b8154811061390f5761390f61496b565b60009182526020808320909101546001600160a01b039081168452838201949094526040928301909120825160c0810184528154909416845260018101546001600160801b0380821693860193909352600160801b90049091169183019190915260028101546001600160401b038116606084015260ff600160401b82048116608085015260a0840191600160481b90041660148111156139b2576139b2614164565b60148111156139c3576139c3614164565b815250508282815181106139d9576139d961496b565b60209081029190910101526001016138e7565b6138268133613c5f565b60006000805160206149c7833981519152613a11848461215c565b613a91576000848152602082815260408083206001600160a01b03871684529091529020805460ff19166001179055613a473390565b6001600160a01b0316836001600160a01b0316857f2f8788117e7eff1d82e926ec794901d17c78024a50270940304540a733656f0d60405160405180910390a460019150506106ed565b60009150506106ed565b60006000805160206149c7833981519152613ab6848461215c565b15613a91576000848152602082815260408083206001600160a01b0387168085529252808320805460ff1916905551339287917ff6391f5c32d9c69d2a47ea670b442974b53935d1edc7fd64eb21e047a839171b9190a460019150506106ed565b33613b497f9016d09d72d40fdae2fd8ceac6b6234c7706214fd39c1cd1e609a0528c199300546001600160a01b031690565b6001600160a01b0316146119e35760405163118cdaa760e01b8152336004820152602401610736565b7f9016d09d72d40fdae2fd8ceac6b6234c7706214fd39c1cd1e609a0528c19930080546001600160a01b031981166001600160a01b03848116918217845560405192169182907f8be0079c531659141344cd1fd0a4f28419497f9722a3daafe3b4186f6b6457e090600090a3505050565b613beb613c9c565b61382681613ce5565b6119e3613c9c565b6000805160206149c78339815191526000613c168461106f565b600085815260208490526040808220600101869055519192508491839187917fbd79b86ffe0ab8e8776151514217cd7cacd52c909f66475c3af44e129f0b00ff9190a450505050565b613c69828261215c565b613c985760405163e2517d3f60e01b81526001600160a01b038216600482015260248101839052604401610736565b5050565b7ff0c57e16840df040f15088dc2f81fe391c3923bec73e23a9662efc9c229c6a0054600160401b900460ff166119e357604051631afcd79f60e31b815260040160405180910390fd5b6137f3613c9c565b60405180610100016040528060006001600160801b0316815260200160006001600160a01b03168152602001606081526020016060815260200160006003811115613d3a57613d3a614164565b81526020016000815260200160008152602001600081525090565b6040805160e081018252600080825260208201819052918101829052606081018290526080810182905260a081018290529060c082015290565b6040805160c08101825260008082526020820181905291810182905260608101829052608081018290529060a082015290565b600060208284031215613dd457600080fd5b81356001600160e01b031981168114613dec57600080fd5b9392505050565b80356001600160a01b0381168114613e0a57600080fd5b919050565b80356001600160801b0381168114613e0a57600080fd5b803560ff81168114613e0a57600080fd5b803560158110613e0a57600080fd5b60008060008060808587031215613e5c57600080fd5b613e6585613df3565b9350613e7360208601613e0f565b9250613e8160408601613e26565b9150613e8f60608601613e37565b905092959194509250565b634e487b7160e01b600052604160045260246000fd5b600082601f830112613ec157600080fd5b81356001600160401b0380821115613edb57613edb613e9a565b604051601f8301601f19908116603f01168101908282118183101715613f0357613f03613e9a565b81604052838152866020858801011115613f1c57600080fd5b836020870160208301376000602085830101528094505050505092915050565b600080600080600060a08688031215613f5457600080fd5b613f5d86613e0f565b9450613f6b60208701613df3565b9350604086013560048110613f7f57600080fd5b925060608601356001600160401b0380821115613f9b57600080fd5b613fa789838a01613eb0565b93506080880135915080821115613fbd57600080fd5b50613fca88828901613eb0565b9150509295509295909350565b600060208284031215613fe957600080fd5b613dec82613df3565b60006020828403121561400457600080fd5b5035919050565b6000806040838503121561401e57600080fd5b8235915061402e60208401613df3565b90509250929050565b6000806000806080858703121561404d57600080fd5b61405685613e0f565b935060208501356001600160401b038082111561407257600080fd5b61407e88838901613eb0565b9450604087013591508082111561409457600080fd5b506140a187828801613eb0565b9250506060850135600281106140b657600080fd5b939692955090935050565b600080600080600060a086880312156140d957600080fd5b6140e286613df3565b97602087013597506040870135966060810135965060800135945092505050565b60006020828403121561411557600080fd5b613dec82613e0f565b6000815180845260005b8181101561414457602081850181015186830182015201614128565b506000602082860101526020601f19601f83011685010191505092915050565b634e487b7160e01b600052602160045260246000fd5b6004811061418a5761418a614164565b9052565b6003811061418a5761418a614164565b60006101006001600160801b03835116845260018060a01b03602084015116602085015260408301518160408601526141d98286018261411e565b915050606083015184820360608601526141f3828261411e565b9150506080830151614208608086018261417a565b5060a083015161421b60a086018261418e565b5060c083015160c085015260e083015160e08501528091505092915050565b602081526000613dec602083018461419e565b602081016106ed828461417a565b6000806040838503121561426e57600080fd5b50508035926020909101359150565b6015811061418a5761418a614164565b60018060a01b0381511682526020810151602083015260408101516001600160801b03808216604085015280606084015116606085015250506001600160401b03608082015116608083015260ff60a08201511660a083015260c08101516113e360c084018261427d565b6020808252825182820181905260009190848201906040850190845b8181101561433a5761432783855161428d565b9284019260e09290920191600101614314565b50909695505050505050565b60008060006060848603121561435b57600080fd5b61436484613e0f565b925060208401356001600160401b038082111561438057600080fd5b61438c87838801613eb0565b935060408601359150808211156143a257600080fd5b506143af86828701613eb0565b9150509250925092565b60008060008060008060c087890312156143d257600080fd5b6143db87613df3565b9860208801359850604088013597606081013597506080810135965060a00135945092505050565b600080600080600060a0868803121561441b57600080fd5b61442486613df3565b94506020860135935061443960408701613e26565b925061444760608701613e37565b915061445560808701613e0f565b90509295509295909350565b6002811061418a5761418a614164565b60006001600160801b03808351168452602083015160a0602086015261449a60a086018261411e565b9050816040850151166040860152606084015191506144bc6060860183614461565b6080840151915084810360808601526144d5818361411e565b95945050505050565b602081526000613dec6020830184614471565b6000806040838503121561450457600080fd5b61450d83613df3565b946020939093013593505050565b6000806000806080858703121561453157600080fd5b61453a85613df3565b935061454860208601613e26565b925061455660408601613e37565b9150613e8f60608601613e0f565b60018060a01b03815116825260208101516001600160801b03808216602085015280604084015116604085015250506001600160401b03606082015116606083015260ff608082015116608083015260a08101516113e360a084018261427d565b60c081016106ed8284614564565b600080600080600060a086880312156145eb57600080fd5b6145f486613df3565b94506020860135935061460960408701613e0f565b925061461760608701613e26565b915061445560808701613e37565b60e081016106ed828461428d565b600060208083016020845280855180835260408601915060408160051b87010192506020870160005b8281101561468a57603f1988860301845261467885835161419e565b9450928501929085019060010161465c565b5092979650505050505050565b600060208083016020845280855180835260408601915060408160051b87010192506020870160005b8281101561468a57603f198886030184526146dc858351614471565b945092850192908501906001016146c0565b6020808252825182820181905260009190848201906040850190845b8181101561433a5761471d838551614564565b9284019260c0929092019160010161470a565b6001600160801b038316815260408101613dec6020830184614461565b60ff8316815260408101613dec602083018461427d565b600181811c9082168061477857607f821691505b60208210810361479857634e487b7160e01b600052602260045260246000fd5b50919050565b601f8211156113e3576000816000526020600020601f850160051c810160208610156147c75750805b601f850160051c820191505b818110156147e6578281556001016147d3565b505050505050565b81516001600160401b0381111561480757614807613e9a565b61481b816148158454614764565b8461479e565b602080601f83116001811461485057600084156148385750858301515b600019600386901b1c1916600185901b1785556147e6565b600085815260208120601f198616915b8281101561487f57888601518255948401946001909101908401614860565b508582101561489d5787850151600019600388901b60f8161c191681555b5050505050600190811b01905550565b6001600160a01b038316815260408101613dec602083018461417a565b634e487b7160e01b600052601160045260246000fd5b60006001600160401b038083168181036148fc576148fc6148ca565b6001019392505050565b6001600160801b038316815260408101613dec602083018461418e565b60006020828403121561493557600080fd5b81518015158114613dec57600080fd5b808201808211156106ed576106ed6148ca565b818103818111156106ed576106ed6148ca565b634e487b7160e01b600052603260045260246000fd5b83815260ff831660208201526060810161499e604083018461427d565b94935050505056fed565e3fc066df348a5cbc05a8d6323e00552838041cea2d84cc59876ba37735d02dd7bc7dec4dceedda775e58dd541e08a116c6c53815c0bd028192f7b626800a2646970667358221220f5233f784627c795b60273e4d4653d0f399de0118f2b72f9a8ece6c93bb5349164736f6c63430008160033",
  "linkReferences": {},
  "deployedLinkReferences": {}
}